{
  "contractName": "MyUSDT",
  "abi": [
    {
      "inputs": [
        {
          "internalType": "address",
          "name": "_usdt",
          "type": "address"
        }
      ],
      "stateMutability": "nonpayable",
      "type": "constructor"
    },
    {
      "inputs": [],
      "name": "usdt",
      "outputs": [
        {
          "internalType": "contract IERC20",
          "name": "",
          "type": "address"
        }
      ],
      "stateMutability": "view",
      "type": "function"
    },
    {
      "inputs": [
        {
          "internalType": "address",
          "name": "account",
          "type": "address"
        }
      ],
      "name": "getUSDTBalance",
      "outputs": [
        {
          "internalType": "uint256",
          "name": "",
          "type": "uint256"
        }
      ],
      "stateMutability": "view",
      "type": "function"
    },
    {
      "inputs": [
        {
          "internalType": "address",
          "name": "recipient",
          "type": "address"
        },
        {
          "internalType": "uint256",
          "name": "amount",
          "type": "uint256"
        }
      ],
      "name": "transferUSDT",
      "outputs": [
        {
          "internalType": "bool",
          "name": "",
          "type": "bool"
        }
      ],
      "stateMutability": "nonpayable",
      "type": "function"
    },
    {
      "inputs": [
        {
          "internalType": "address",
          "name": "_spender",
          "type": "address"
        },
        {
          "internalType": "uint256",
          "name": "_amount",
          "type": "uint256"
        }
      ],
      "name": "approveUSDT",
      "outputs": [],
      "stateMutability": "nonpayable",
      "type": "function"
    },
    {
      "inputs": [
        {
          "internalType": "address",
          "name": "_from",
          "type": "address"
        },
        {
          "internalType": "address",
          "name": "_to",
          "type": "address"
        },
        {
          "internalType": "uint256",
          "name": "_amount",
          "type": "uint256"
        }
      ],
      "name": "transferUSDTFrom",
      "outputs": [],
      "stateMutability": "nonpayable",
      "type": "function"
    },
    {
      "inputs": [
        {
          "internalType": "address",
          "name": "_owner",
          "type": "address"
        },
        {
          "internalType": "address",
          "name": "_spender",
          "type": "address"
        }
      ],
      "name": "getAllowance",
      "outputs": [
        {
          "internalType": "uint256",
          "name": "",
          "type": "uint256"
        }
      ],
      "stateMutability": "view",
      "type": "function"
    },
    {
      "inputs": [],
      "name": "getTotalSupply",
      "outputs": [
        {
          "internalType": "uint256",
          "name": "",
          "type": "uint256"
        }
      ],
      "stateMutability": "view",
      "type": "function"
    }
  ],
  "bytecode": "0x608060405234801561001057600080fd5b506040516106c03803806106c083398101604081905261002f91610054565b600080546001600160a01b0319166001600160a01b0392909216919091179055610084565b60006020828403121561006657600080fd5b81516001600160a01b038116811461007d57600080fd5b9392505050565b61062d806100936000396000f3fe608060405234801561001057600080fd5b506004361061007d5760003560e01c8063a85672581161005b578063a8567258146100e6578063c4e41b22146100fb578063c918b9f014610103578063d015ed6a1461011657600080fd5b80630af4187d146100825780632f48ab7d146100a857806385b27116146100d3575b600080fd5b610095610090366004610508565b610139565b6040519081526020015b60405180910390f35b6000546100bb906001600160a01b031681565b6040516001600160a01b03909116815260200161009f565b6100956100e136600461053b565b6101b7565b6100f96100f4366004610556565b61022c565b005b6100956102ea565b6100f9610111366004610580565b610367565b610129610124366004610556565b61042d565b604051901515815260200161009f565b60008054604051636eb1769f60e11b81526001600160a01b03858116600483015284811660248301529091169063dd62ed3e90604401602060405180830381865afa15801561018c573d6000803e3d6000fd5b505050506040513d601f19601f820116820180604052508101906101b091906105bc565b9392505050565b600080546040516370a0823160e01b81526001600160a01b038481166004830152909116906370a0823190602401602060405180830381865afa158015610202573d6000803e3d6000fd5b505050506040513d601f19601f8201168201806040525081019061022691906105bc565b92915050565b60005460405163095ea7b360e01b81526001600160a01b038481166004830152602482018490529091169063095ea7b3906044016020604051808303816000875af115801561027f573d6000803e3d6000fd5b505050506040513d601f19601f820116820180604052508101906102a391906105d5565b6102e65760405162461bcd60e51b815260206004820152600f60248201526e105c1c1c9bdd985b0819985a5b1959608a1b60448201526064015b60405180910390fd5b5050565b60008060009054906101000a90046001600160a01b03166001600160a01b03166318160ddd6040518163ffffffff1660e01b8152600401602060405180830381865afa15801561033e573d6000803e3d6000fd5b505050506040513d601f19601f8201168201806040525081019061036291906105bc565b905090565b6000546040516323b872dd60e01b81526001600160a01b038581166004830152848116602483015260448201849052909116906323b872dd906064016020604051808303816000875af11580156103c2573d6000803e3d6000fd5b505050506040513d601f19601f820116820180604052508101906103e691906105d5565b6104285760405162461bcd60e51b8152602060048201526013602482015272151c985b9cd9995c919c9bdb4819985a5b1959606a1b60448201526064016102dd565b505050565b6000805460405163a9059cbb60e01b81526001600160a01b038581166004830152602482018590529091169063a9059cbb906044016020604051808303816000875af1158015610481573d6000803e3d6000fd5b505050506040513d601f19601f820116820180604052508101906104a591906105d5565b6104e35760405162461bcd60e51b815260206004820152600f60248201526e151c985b9cd9995c8819985a5b1959608a1b60448201526064016102dd565b50600192915050565b80356001600160a01b038116811461050357600080fd5b919050565b6000806040838503121561051b57600080fd5b610524836104ec565b9150610532602084016104ec565b90509250929050565b60006020828403121561054d57600080fd5b6101b0826104ec565b6000806040838503121561056957600080fd5b610572836104ec565b946020939093013593505050565b60008060006060848603121561059557600080fd5b61059e846104ec565b92506105ac602085016104ec565b9150604084013590509250925092565b6000602082840312156105ce57600080fd5b5051919050565b6000602082840312156105e757600080fd5b815180151581146101b057600080fdfea264697066735822122029f6acd3ce95e8be2d1c93c72db4dea87ba9d7aa7540f7c30502163d2000095c64736f6c63430008130033",
  "immutableReferences": {},
  "source": "//SPDX-License-Identifier: MIT\r\npragma solidity ^0.8.19;\r\n\r\n// source: https://docs.alchemy.com/docs/how-to-interact-with-erc-20-tokens-in-solidity\r\n\r\ninterface IERC20 {\r\n    function totalSupply() external view returns (uint256);\r\n    function balanceOf(address account) external view returns (uint256);\r\n    function transfer(address recipient, uint256 amount) external returns (bool);\r\n    function allowance(address owner, address spender) external view returns (uint256);\r\n    function approve(address spender, uint256 amount) external returns (bool);\r\n    function transferFrom(address sender, address recipient, uint256 amount) external returns (bool);\r\n\r\n    event Transfer(address indexed from, address indexed to, uint256 value);\r\n    event Approval(address indexed owner, address indexed spender, uint256 value);\r\n}\r\n\r\ncontract MyUSDT {\r\n    IERC20 public usdt;\r\n    constructor(address _usdt) {\r\n        usdt = IERC20(_usdt);\r\n    }\r\n    // Function to get the USDT balance of this contract\r\n    function getUSDTBalance(address account) external view returns (uint256) {\r\n        return usdt.balanceOf(account);\r\n    }\r\n    // Function to transfer USDT tokens\r\n    function transferUSDT(address recipient, uint256 amount) external returns (bool) {\r\n        require(usdt.transfer(recipient, amount), \"Transfer failed\");\r\n        return true;\r\n    }\r\n    // Function to approve USDT tokens for spending\r\n    function approveUSDT(address _spender, uint256 _amount) external {\r\n        require(usdt.approve(_spender, _amount), \"Approval failed\");\r\n    }\r\n    // Function to transfer USDT tokens from one address to another\r\n    function transferUSDTFrom(address _from, address _to, uint256 _amount) external {\r\n        require(usdt.transferFrom(_from, _to, _amount), \"TransferFrom failed\");\r\n    }\r\n    // Function to get the allowance for a spender\r\n    function getAllowance(address _owner, address _spender) external view returns (uint256) {\r\n        return usdt.allowance(_owner, _spender);\r\n    }\r\n    // Function to get the total supply of USDT tokens\r\n    function getTotalSupply() external view returns (uint256) {\r\n        return usdt.totalSupply();\r\n    }\r\n}",
  "sourcePath": "C:\\Users\\AnaMi\\Desktop\\truffle-projects\\bike-sharing\\contracts\\erc20.sol",
  "compiler": {
    "name": "solc",
    "version": "0.8.19+commit.7dd6d404.Emscripten.clang"
  },
  "schemaVersion": "3.4.16",
  "updatedAt": "2024-04-24T16:45:18.071Z",
  "devdoc": {
    "kind": "dev",
    "methods": {},
    "version": 1
  },
  "userdoc": {
    "kind": "user",
    "methods": {},
    "version": 1
  }
}