{
  "contractName": "RentalAgreement",
  "abi": [
    {
      "inputs": [
        {
          "internalType": "address",
          "name": "_userRegistry",
          "type": "address"
        }
      ],
      "stateMutability": "nonpayable",
      "type": "constructor"
    },
    {
      "anonymous": false,
      "inputs": [
        {
          "indexed": true,
          "internalType": "address",
          "name": "rentee",
          "type": "address"
        },
        {
          "indexed": true,
          "internalType": "uint256",
          "name": "rentalId",
          "type": "uint256"
        }
      ],
      "name": "NewRental",
      "type": "event"
    },
    {
      "inputs": [],
      "name": "admin",
      "outputs": [
        {
          "internalType": "address",
          "name": "",
          "type": "address"
        }
      ],
      "stateMutability": "view",
      "type": "function"
    },
    {
      "inputs": [],
      "name": "rentalId",
      "outputs": [
        {
          "internalType": "uint256",
          "name": "",
          "type": "uint256"
        }
      ],
      "stateMutability": "view",
      "type": "function"
    },
    {
      "inputs": [
        {
          "internalType": "uint256",
          "name": "",
          "type": "uint256"
        }
      ],
      "name": "rentals",
      "outputs": [
        {
          "internalType": "address",
          "name": "renterAddress",
          "type": "address"
        },
        {
          "internalType": "uint256",
          "name": "startDate",
          "type": "uint256"
        },
        {
          "internalType": "uint256",
          "name": "endDate",
          "type": "uint256"
        },
        {
          "internalType": "uint256",
          "name": "rentalFee",
          "type": "uint256"
        },
        {
          "internalType": "bool",
          "name": "isActive",
          "type": "bool"
        }
      ],
      "stateMutability": "view",
      "type": "function"
    },
    {
      "inputs": [],
      "name": "renter",
      "outputs": [
        {
          "internalType": "contract UserRegistration",
          "name": "",
          "type": "address"
        }
      ],
      "stateMutability": "view",
      "type": "function"
    },
    {
      "inputs": [
        {
          "internalType": "address",
          "name": "_renter",
          "type": "address"
        }
      ],
      "name": "isUserRegistered",
      "outputs": [
        {
          "internalType": "bool",
          "name": "",
          "type": "bool"
        }
      ],
      "stateMutability": "view",
      "type": "function"
    },
    {
      "inputs": [],
      "name": "checkoutBike",
      "outputs": [
        {
          "internalType": "bool",
          "name": "",
          "type": "bool"
        }
      ],
      "stateMutability": "nonpayable",
      "type": "function"
    },
    {
      "inputs": [
        {
          "internalType": "uint256",
          "name": "_id",
          "type": "uint256"
        }
      ],
      "name": "getRentalInfo",
      "outputs": [
        {
          "internalType": "address",
          "name": "rentee",
          "type": "address"
        },
        {
          "internalType": "uint256",
          "name": "startDate",
          "type": "uint256"
        },
        {
          "internalType": "uint256",
          "name": "endDate",
          "type": "uint256"
        },
        {
          "internalType": "bool",
          "name": "isActive",
          "type": "bool"
        }
      ],
      "stateMutability": "view",
      "type": "function"
    }
  ],
  "bytecode": "0x608060405234801561001057600080fd5b5060405161066538038061066583398101604081905261002f91610062565b60028054336001600160a01b031991821617909155600380549091166001600160a01b0392909216919091179055610092565b60006020828403121561007457600080fd5b81516001600160a01b038116811461008b57600080fd5b9392505050565b6105c4806100a16000396000f3fe608060405234801561001057600080fd5b506004361061007d5760003560e01c80639f5079d01161005b5780639f5079d014610114578063af94a1d11461012b578063bf0487f0146101a9578063f851a440146101b157600080fd5b8063163f75221461008257806327dc3fbd146100aa5780632e88ab0b146100e9575b600080fd5b6100956100903660046103fe565b6101c4565b60405190151581526020015b60405180910390f35b6100bd6100b836600461042e565b610244565b604080516001600160a01b039095168552602085019390935291830152151560608201526080016100a1565b6003546100fc906001600160a01b031681565b6040516001600160a01b0390911681526020016100a1565b61011d60015481565b6040519081526020016100a1565b61017561013936600461042e565b600060208190529081526040902080546001820154600283015460038401546004909401546001600160a01b0390931693919290919060ff1685565b604080516001600160a01b03909616865260208601949094529284019190915260608301521515608082015260a0016100a1565b6100956102ca565b6002546100fc906001600160a01b031681565b60035460405163baa293fb60e01b81526001600160a01b038381166004830152600092839291169063baa293fb90602401600060405180830381865afa158015610212573d6000803e3d6000fd5b505050506040513d6000823e601f3d908101601f1916820160405261023a9190810190610472565b9695505050505050565b600081815260208181526040808320815160a08101835281546001600160a01b031681526001820154938101939093526002810154918301829052600381015460608401526004015460ff1615156080830152829182918291904211156102ac5760006102af565b60015b81516020830151604090930151909892975095509350915050565b60018054600091826102db83610567565b91905055506102e9336101c4565b6103335760405162461bcd60e51b8152602060048201526016602482015275155cd95c881a5cc81b9bdd081c9959da5cdd195c995960521b60448201526064015b60405180910390fd5b60035460405163baa293fb60e01b81523360048201526000916001600160a01b03169063baa293fb90602401600060405180830381865afa15801561037c573d6000803e3d6000fd5b505050506040513d6000823e601f3d908101601f191682016040526103a49190810190610472565b5050915050806103f65760405162461bcd60e51b815260206004820152601e60248201527f52656e746572206973206e6f7420656c696769626c6520746f2072656e740000604482015260640161032a565b600191505090565b60006020828403121561041057600080fd5b81356001600160a01b038116811461042757600080fd5b9392505050565b60006020828403121561044057600080fd5b5035919050565b634e487b7160e01b600052604160045260246000fd5b8051801515811461046d57600080fd5b919050565b6000806000806080858703121561048857600080fd5b845167ffffffffffffffff808211156104a057600080fd5b818701915087601f8301126104b457600080fd5b8151818111156104c6576104c6610447565b604051601f8201601f19908116603f011681019083821181831017156104ee576104ee610447565b81604052828152602093508a8484870101111561050a57600080fd5b600091505b8282101561052c578482018401518183018501529083019061050f565b600084848301015280985050505061054581880161045d565b945050506040850151915061055c6060860161045d565b905092959194509250565b60006001820161058757634e487b7160e01b600052601160045260246000fd5b506001019056fea2646970667358221220829ce409451accc48860cde5c408527c2c2c104b3ad5041577b419a79a4294c964736f6c63430008130033",
  "immutableReferences": {},
  "source": "// SPDX-License-Identifier: MIT\r\npragma solidity ^0.8.19;\r\n\r\nimport \"./UserRegistration.sol\";\r\n\r\ncontract RentalAgreement {\r\n\r\n    // The rental transation itself\r\n    struct Rental {\r\n        address renterAddress;  // Address of the renter\r\n        uint256 startDate;      // Start time of the rental agreement (timestamp)\r\n        uint256 endDate;\r\n        uint256 rentalFee;      // Fee for the rental agreement\r\n        bool isActive;          //true when the rental agreement is initiated and set to false when the bicycle is returned\r\n    }\r\n\r\n    mapping(uint256 => Rental) public rentals;\r\n    uint256  public rentalId; // = 1;\r\n\r\n    address public admin;       // Admin account that creates and signs contracts\r\n    UserRegistration public renter;\r\n    // mapping(address => UserRegistration.Renter) public renters;\r\n\r\n    modifier onlyAdmin() {\r\n        require(msg.sender == admin, \"Only admin can call this function\");\r\n        _;\r\n    }\r\n\r\n    function isUserRegistered(address _renter) public view returns (bool){\r\n        (, , ,bool isRegistered) = renter.getRenterDetails(_renter);\r\n        return isRegistered;\r\n    }\r\n\r\n    constructor(address _userRegistry) {\r\n        admin = msg.sender;\r\n        renter = UserRegistration(_userRegistry);\r\n        // Renter storage renterInfo = renters[msg.sender];\r\n        /*renterInfo.walletAddress = msg.sender;\r\n        renterInfo.name = \"\";\r\n        renterInfo.canRent = true;\r\n        renterInfo.balance = 0;\r\n        renterInfo.isRegistered = true;*/\r\n        /*renter.walletAddress = msg.sender;\r\n        renter.name = \"\";\r\n        renter.canRent = true;\r\n        renter.balance = 0;\r\n        renter.isRegistered = true;*/\r\n    }\r\n\r\n    // check out bike\r\n    function  checkoutBike() public returns (bool){ //uint256 _startDate, uint256 _endDate\r\n        rentalId++;\r\n        require(isUserRegistered(msg.sender), \"User is not registered\");\r\n        // Fetch renter details\r\n        (, bool canRent, , ) = renter.getRenterDetails(msg.sender);\r\n        require(canRent, \"Renter is not eligible to rent\");\r\n\r\n        /* Renter storage renter = renters[msg.sender];\r\n        rentals[rentalId].renterAddress= msg.sender;\r\n        rentals[rentalId].startDate = _startDate;\r\n        rentals[rentalId].endDate   = _endDate;*/\r\n        //return isValidDates(_startDate,_endDate);\r\n        return true;\r\n    }\r\n\r\n    // check in a bike\r\n\r\n    // Get total duration of a bike use/trip\r\n    function getDuration(uint256 _startDate, uint256 _endDate) internal pure returns(uint){\r\n        return (_endDate - _startDate)/3600;   // Duration is returned in hours\r\n    }\r\n\r\n    // Get  the cost of a specific trip (based on dates)\r\n\r\n\r\n    /* address public admin; // address payable owner;\r\n    constructor() {\r\n        admin = msg.sender;\r\n    }\r\n\r\n    modifier onlyAdmin(){\r\n        require(msg.sender == admin, \"Only admin can call this function\");\r\n        _;\r\n    }*/\r\n    \r\n    event NewRental(address indexed rentee, uint256 indexed rentalId);\r\n\r\n    /**\r\n     * @dev Adds a new rental to the list of active rentals.\r\n     */\r\n    //function addNewRental(address rentee, uint256 start, uint256 end, uint256 fee) external onlyAdmin{\r\n    //    rentalId++;\r\n        /*Rental storage newRental = rentals[rentalId];\r\n        newRental.renterAddress = rentee;\r\n        newRental.startDate = start;\r\n        newRental.endDate = end;\r\n        newRental.rentalFee = fee;\r\n        \r\n        emit NewRental(rentee, rentalId);*/\r\n    //}\r\n\r\n    /**\r\n     * @dev Returns information about a specific rental.\r\n     */\r\n    function getRentalInfo(uint256 _id) view external returns(\r\n        address rentee,\r\n        uint256 startDate,\r\n        uint256 endDate,\r\n        bool isActive\r\n    ) {\r\n        Rental memory rental = rentals[_id];\r\n        isActive = (block.timestamp <= rental.endDate) ? true : false;\r\n        return (rental.renterAddress, rental.startDate, rental.endDate, isActive);\r\n    }\r\n\r\n    //mapping(uint256 => Rental) private rentals;   // St ores the details of each rental transaction in the marketplace\r\n    //mapping(uint256 => Rental) private rentals; // Mapping from token ID to rental data\r\n    //uint256 public rentalId=0;   // Counter for rental IDs\r\n}",
  "sourcePath": "C:\\Users\\AnaMi\\Desktop\\truffle-projects\\bike-sharing\\contracts\\RentalAgreement.sol",
  "compiler": {
    "name": "solc",
    "version": "0.8.19+commit.7dd6d404.Emscripten.clang"
  },
  "schemaVersion": "3.4.16",
  "updatedAt": "2024-02-23T11:02:48.236Z",
  "devdoc": {
    "kind": "dev",
    "methods": {
      "getRentalInfo(uint256)": {
        "details": "Returns information about a specific rental."
      }
    },
    "version": 1
  },
  "userdoc": {
    "kind": "user",
    "methods": {},
    "version": 1
  }
}