{
  "contractName": "RentalBike",
  "abi": [
    {
      "inputs": [],
      "stateMutability": "nonpayable",
      "type": "constructor"
    },
    {
      "inputs": [],
      "name": "bikeId",
      "outputs": [
        {
          "internalType": "uint256",
          "name": "",
          "type": "uint256"
        }
      ],
      "stateMutability": "view",
      "type": "function"
    },
    {
      "inputs": [],
      "name": "latestRentalId",
      "outputs": [
        {
          "internalType": "uint256",
          "name": "",
          "type": "uint256"
        }
      ],
      "stateMutability": "view",
      "type": "function"
    },
    {
      "inputs": [],
      "name": "numberOfRentals",
      "outputs": [
        {
          "internalType": "uint256",
          "name": "",
          "type": "uint256"
        }
      ],
      "stateMutability": "view",
      "type": "function"
    },
    {
      "inputs": [
        {
          "internalType": "uint256",
          "name": "",
          "type": "uint256"
        }
      ],
      "name": "rentalIds",
      "outputs": [
        {
          "internalType": "uint256",
          "name": "",
          "type": "uint256"
        }
      ],
      "stateMutability": "view",
      "type": "function"
    },
    {
      "inputs": [
        {
          "internalType": "uint256",
          "name": "",
          "type": "uint256"
        }
      ],
      "name": "rentals",
      "outputs": [
        {
          "internalType": "uint256",
          "name": "rentalId",
          "type": "uint256"
        },
        {
          "internalType": "address",
          "name": "renterAddress",
          "type": "address"
        },
        {
          "internalType": "uint256",
          "name": "bikeId",
          "type": "uint256"
        },
        {
          "internalType": "uint256",
          "name": "startDate",
          "type": "uint256"
        },
        {
          "internalType": "uint256",
          "name": "endDate",
          "type": "uint256"
        },
        {
          "internalType": "uint256",
          "name": "rentalDuration",
          "type": "uint256"
        },
        {
          "internalType": "uint256",
          "name": "pricePerHour",
          "type": "uint256"
        },
        {
          "internalType": "uint256",
          "name": "rentalFee",
          "type": "uint256"
        },
        {
          "internalType": "bool",
          "name": "isActive",
          "type": "bool"
        }
      ],
      "stateMutability": "view",
      "type": "function"
    },
    {
      "inputs": [],
      "name": "usdt",
      "outputs": [
        {
          "internalType": "contract ERC20",
          "name": "",
          "type": "address"
        }
      ],
      "stateMutability": "view",
      "type": "function"
    },
    {
      "inputs": [
        {
          "internalType": "address",
          "name": "_wallet",
          "type": "address"
        }
      ],
      "name": "rentABike",
      "outputs": [],
      "stateMutability": "nonpayable",
      "type": "function"
    },
    {
      "inputs": [
        {
          "internalType": "uint256",
          "name": "_rentalId",
          "type": "uint256"
        }
      ],
      "name": "returnABike",
      "outputs": [],
      "stateMutability": "nonpayable",
      "type": "function"
    }
  ],
  "bytecode": "0x6080604052600280546001600160a01b0319163317905560006004819055600581905560065534801561003157600080fd5b50600080546001600160a01b0319163317905561056b806100536000396000f3fe608060405234801561001057600080fd5b50600436106100885760003560e01c80637821c2751161005b5780637821c275146100f2578063af94a1d114610105578063ebfa74c9146101ba578063fc6e53a2146101cd57600080fd5b80630da1ac651461008d5780630eb56db7146100a25780632f48ab7d146100be57806362d7b8af146100e9575b600080fd5b6100a061009b36600461046b565b6101d6565b005b6100ab60045481565b6040519081526020015b60405180910390f35b6001546100d1906001600160a01b031681565b6040516001600160a01b0390911681526020016100b5565b6100ab60065481565b6100a061010036600461049b565b6103d1565b61016c61011336600461049b565b600360208190526000918252604090912080546001820154600283015493830154600484015460058501546006860154600787015460089097015495976001600160a01b03909516969495939492939192909160ff1689565b60408051998a526001600160a01b0390981660208a0152968801959095526060870193909352608086019190915260a085015260c084015260e08301521515610100820152610120016100b5565b6100ab6101c836600461049b565b61044a565b6100ab60055481565b8060036000600654815260200190815260200160002060010160006101000a8154816001600160a01b0302191690836001600160a01b031602179055504260036000600654815260200190815260200160002060030181905550600160036000600654815260200190815260200160002060080160006101000a81548160ff021916908315150217905550600760065490806001815401808255809150506001900390600052602060002001600090919091909150556040518061012001604052806006548152602001336001600160a01b03168152602001600554815260200142815260200160008152602001600081526020016001815260200160008152602001600115158152506003600060065481526020019081526020016000206000820151816000015560208201518160010160006101000a8154816001600160a01b0302191690836001600160a01b0316021790555060408201518160020155606082015181600301556080820151816004015560a0820151816005015560c0820151816006015560e082015181600701556101008201518160080160006101000a81548160ff0219169083151502179055509050506004600081548092919061039f906104ca565b9091555050600680549060006103b4836104ca565b9091555050600580549060006103c9836104ca565b919050555050565b60008181526003602081905260409091204260048201819055910154603c916103fa91906104e3565b61040491906104fc565b600082815260036020526040902060058101829055600601546104269161051e565b6000918252600360205260409091206007810191909155600801805460ff19169055565b6007818154811061045a57600080fd5b600091825260209091200154905081565b60006020828403121561047d57600080fd5b81356001600160a01b038116811461049457600080fd5b9392505050565b6000602082840312156104ad57600080fd5b5035919050565b634e487b7160e01b600052601160045260246000fd5b6000600182016104dc576104dc6104b4565b5060010190565b818103818111156104f6576104f66104b4565b92915050565b60008261051957634e487b7160e01b600052601260045260246000fd5b500490565b80820281158282048414176104f6576104f66104b456fea2646970667358221220a8d732189c4451604a8a9f8449bc6fac2d6dace2e1d6f8d92375d5e968bf723664736f6c63430008130033",
  "immutableReferences": {},
  "source": "//SPDX-License-Identifier: MIT\r\npragma solidity ^0.8.19;\r\n\r\nimport \"./UserRegistration.sol\";\r\n\r\n/*contract RenterInterface {\r\n  function getRenterDetails(address _walletAddress) public view returns (string memory name, \r\n    bool canRent, \r\n    uint balance, \r\n    bool isRegistered);\r\n}*/\r\ninterface ERC20 {\r\n    function transfer(address recipient, uint256 amount) external returns (bool);\r\n    function transferFrom(address sender, address recipient, uint256 amount) external returns (bool);\r\n    // Add other ERC-20 functions as needed\r\n}\r\n\r\ncontract RentalBike {\r\n    address owner;\r\n    ERC20 public usdt;\r\n    UserRegistration userRegistration = UserRegistration(msg.sender);\r\n\r\n\r\n    constructor() {\r\n        owner = msg.sender;\r\n        //usdt = ERC20(_usdtAddress);\r\n        //userRegistration = UserRegistration(msg.sender);\r\n    }\r\n\r\n    modifier onlyOwner() {\r\n        require(msg.sender == owner, \"Only the Owner can call this function\");\r\n        _;\r\n    }\r\n\r\n    function saveRenterDetails(address _walletAddress) internal view returns (bool) {\r\n        //(string memory name, bool canRent, uint balance, bool isRegistered) = userRegistration.getRenterDetails(_walletAddress);\r\n        (, , , bool isRegistered,) = userRegistration.getRenterDetails(_walletAddress);\r\n        // Save renter details in a variable or perform any other actions\r\n        return isRegistered;\r\n    }\r\n\r\n    struct Rental {\r\n        uint rentalId;\r\n        address renterAddress;  // Address of the renter\r\n        uint bikeId;            // ID of the rented bike\r\n        uint256 startDate;      // Start time of the rental agreement (timestamp)\r\n        uint256 endDate;\r\n        uint rentalDuration;\r\n        uint pricePerHour;\r\n        uint256 rentalFee;      // Fee for the rental agreement\r\n        bool isActive;          //true when the rental agreement is initiated and set to false when the bicycle is returned\r\n    }\r\n\r\n    mapping(uint256 => Rental) public rentals; \r\n    uint public numberOfRentals=0;\r\n    uint public bikeId = 0;\r\n    uint public latestRentalId = 0;\r\n    uint256[] public rentalIds;   // Array that will hold all the rental ids, so we can easily access them later on\r\n\r\n    // constructor for rental struct   \r\n\r\n    // function that allows a renter rent a bike\r\n    function rentABike(address _wallet) public {\r\n        // check if the renter is registered and if the bike is available\r\n        //require(saveRenterDetails(msg.sender), \"Renter is not registered.You need to be registered first!\");\r\n        \r\n        // take of the bikeId from rentals and check her  availability\r\n        //require(!bikes[_rentalId].available, \"Bike not available\");\r\n        //require(!rentals[_rentalId].available, \"Bike not available\");\r\n        //require(renterAddress.balance > 0, \"Renter has no funds in his wallet.\");\r\n        // Assign the renter address to the renterAddress variable\r\n        rentals[latestRentalId].renterAddress = _wallet;    // msg.sender;\r\n\r\n        // set the starDate\r\n        rentals[latestRentalId].startDate = block.timestamp;\r\n        rentals[latestRentalId].isActive =  true;\r\n       \r\n        // Update the status of the bike\r\n        //bikes[_bikeId].available = false;\r\n\r\n        // create a new rental record\r\n        rentalIds.push(latestRentalId);\r\n        rentals[latestRentalId] = Rental(latestRentalId, msg.sender, bikeId, block.timestamp, 0, 0, 1, 0, true);\r\n\r\n        // update the number of active rentals\r\n        numberOfRentals++;\r\n\r\n        // emit a rental event\r\n        //emit rentABike(latestRentalId, _bikeId);\r\n\r\n        // update the latest rental ID\r\n        latestRentalId++;\r\n        bikeId++;\r\n    }\r\n\r\n    // function that returns a bike to be used again\r\n    //function returnABike(uint _bikeId, uint _rentalId) public {\r\n    function returnABike(uint _rentalId) public {\r\n        // Require that the user has actually hired the bike\r\n        //require(,\"You haven't hired this bike yet.\");\r\n\r\n        rentals[_rentalId].endDate = block.timestamp;\r\n        // Calculate how much time was spent on the bike\r\n        //uint256 rentalDuration = (rentals[_rentalId].endDate - rentals[_rentalId].startDate) / 3600;\r\n        // hours - rentals[_rentalId].rentalDuration = (rentals[_rentalId].endDate - rentals[_rentalId].startDate) / 3600;\r\n        rentals[_rentalId].rentalDuration = (rentals[_rentalId].endDate - rentals[_rentalId].startDate) / 60;\r\n        // Calculate the rental fee\r\n        rentals[_rentalId].rentalFee = rentals[_rentalId].rentalDuration * rentals[_rentalId].pricePerHour;\r\n        \r\n        \r\n        rentals[_rentalId].isActive =  false;\r\n        //payment\r\n        // Update the status of the bike\r\n        //bikes[_bikeId].available = true;\r\n    }\r\n\r\n    // Get total duration of a bike use/trip\r\n    /*function getDuration(uint256 _startDate, uint256 _endDate) internal pure returns(uint){\r\n        require(_endDate >= _startDate, \"End date must be greater than or equal to start date\");\r\n        return (_endDate - _startDate)/3600;   // Duration is returned in hours\r\n    }*/\r\n\r\n}",
  "sourcePath": "C:\\Users\\AnaMi\\Desktop\\truffle-projects\\bike-sharing\\contracts\\ntest.sol",
  "compiler": {
    "name": "solc",
    "version": "0.8.19+commit.7dd6d404.Emscripten.clang"
  },
  "schemaVersion": "3.4.16",
  "updatedAt": "2024-04-24T16:45:18.053Z",
  "devdoc": {
    "kind": "dev",
    "methods": {},
    "version": 1
  },
  "userdoc": {
    "kind": "user",
    "methods": {},
    "version": 1
  }
}