{
  "contractName": "UserRegistration",
  "abi": [
    {
      "inputs": [],
      "stateMutability": "nonpayable",
      "type": "constructor"
    },
    {
      "anonymous": false,
      "inputs": [
        {
          "indexed": true,
          "internalType": "address",
          "name": "walletAddress",
          "type": "address"
        },
        {
          "indexed": false,
          "internalType": "string",
          "name": "name",
          "type": "string"
        }
      ],
      "name": "UserRegistered",
      "type": "event"
    },
    {
      "inputs": [
        {
          "internalType": "address",
          "name": "",
          "type": "address"
        }
      ],
      "name": "renters",
      "outputs": [
        {
          "internalType": "address payable",
          "name": "walletAddress",
          "type": "address"
        },
        {
          "internalType": "string",
          "name": "name",
          "type": "string"
        },
        {
          "internalType": "bool",
          "name": "canRent",
          "type": "bool"
        },
        {
          "internalType": "uint256",
          "name": "balance",
          "type": "uint256"
        },
        {
          "internalType": "bool",
          "name": "isRegistered",
          "type": "bool"
        },
        {
          "internalType": "uint256",
          "name": "nTrips",
          "type": "uint256"
        }
      ],
      "stateMutability": "view",
      "type": "function"
    },
    {
      "inputs": [
        {
          "internalType": "address payable",
          "name": "_walletAddress",
          "type": "address"
        },
        {
          "internalType": "string",
          "name": "_name",
          "type": "string"
        }
      ],
      "name": "registerRenter",
      "outputs": [],
      "stateMutability": "nonpayable",
      "type": "function"
    },
    {
      "inputs": [
        {
          "internalType": "address",
          "name": "_walletAddress",
          "type": "address"
        }
      ],
      "name": "getRenterDetails",
      "outputs": [
        {
          "internalType": "string",
          "name": "name",
          "type": "string"
        },
        {
          "internalType": "bool",
          "name": "canRent",
          "type": "bool"
        },
        {
          "internalType": "uint256",
          "name": "balance",
          "type": "uint256"
        },
        {
          "internalType": "bool",
          "name": "isRegistered",
          "type": "bool"
        },
        {
          "internalType": "uint256",
          "name": "nTrips",
          "type": "uint256"
        }
      ],
      "stateMutability": "view",
      "type": "function"
    }
  ],
  "bytecode": "0x608060405234801561001057600080fd5b506000805561080b806100246000396000f3fe608060405234801561001057600080fd5b50600436106100415760003560e01c8063644a137014610046578063baa293fb14610074578063e585d04614610098575b600080fd5b61005961005436600461048e565b6100ad565b60405161006b969594939291906104f8565b60405180910390f35b61008761008236600461048e565b61017e565b60405161006b959493929190610541565b6100ab6100a636600461058e565b6102b6565b005b6001602081905260009182526040909120805491810180546001600160a01b03909316926100da90610652565b80601f016020809104026020016040519081016040528092919081815260200182805461010690610652565b80156101535780601f1061012857610100808354040283529160200191610153565b820191906000526020600020905b81548152906001019060200180831161013657829003601f168201915b505050600284015460038501546004860154600590960154949560ff92831695919450909116915086565b6001600160a01b038082166000908152600160208181526040808420815160c081019092528054909516815291840180546060958594859485948594929392918401916101ca90610652565b80601f01602080910402602001604051908101604052809291908181526020018280546101f690610652565b80156102435780601f1061021857610100808354040283529160200191610243565b820191906000526020600020905b81548152906001019060200180831161022657829003601f168201915b5050509183525050600282015460ff908116151560208084019190915260038401546040808501919091526004850154909216151560608085019190915260059094015460809384015284015190840151928401519184015160a090940151909b929a5090985091965090945092505050565b60008151116103035760405162461bcd60e51b81526020600482015260146024820152734e616d652063616e6e6f7420626520656d70747960601b60448201526064015b60405180910390fd5b6001600160a01b03821660009081526001602052604090206004015460ff16156103665760405162461bcd60e51b81526020600482015260146024820152732ab9b2b91030b63932b0b23c9032bc34b9ba399760611b60448201526064016102fa565b6040805160c0810182526001600160a01b03848116808352602080840186815260018587018190526000606087018190526080870182905260a087018190529384529182905294909120835181546001600160a01b0319169316929092178255925191929091908201906103da90826106db565b50604082015160028201805491151560ff199283161790556060830151600383015560808301516004830180549115159190921617905560a09091015160059091015560008054908061042c8361079b565b9190505550816001600160a01b03167f48cac28ad4dc618e15f4c2dd5e97751182f166de97b25618318b2112aa951a2f8260405161046a91906107c2565b60405180910390a25050565b6001600160a01b038116811461048b57600080fd5b50565b6000602082840312156104a057600080fd5b81356104ab81610476565b9392505050565b6000815180845260005b818110156104d8576020818501810151868301820152016104bc565b506000602082860101526020601f19601f83011685010191505092915050565b6001600160a01b038716815260c06020820181905260009061051c908301886104b2565b9515156040830152506060810193909352901515608083015260a09091015292915050565b60a08152600061055460a08301886104b2565b95151560208301525060408101939093529015156060830152608090910152919050565b634e487b7160e01b600052604160045260246000fd5b600080604083850312156105a157600080fd5b82356105ac81610476565b9150602083013567ffffffffffffffff808211156105c957600080fd5b818501915085601f8301126105dd57600080fd5b8135818111156105ef576105ef610578565b604051601f8201601f19908116603f0116810190838211818310171561061757610617610578565b8160405282815288602084870101111561063057600080fd5b8260208601602083013760006020848301015280955050505050509250929050565b600181811c9082168061066657607f821691505b60208210810361068657634e487b7160e01b600052602260045260246000fd5b50919050565b601f8211156106d657600081815260208120601f850160051c810160208610156106b35750805b601f850160051c820191505b818110156106d2578281556001016106bf565b5050505b505050565b815167ffffffffffffffff8111156106f5576106f5610578565b610709816107038454610652565b8461068c565b602080601f83116001811461073e57600084156107265750858301515b600019600386901b1c1916600185901b1785556106d2565b600085815260208120601f198616915b8281101561076d5788860151825594840194600190910190840161074e565b508582101561078b5787850151600019600388901b60f8161c191681555b5050505050600190811b01905550565b6000600182016107bb57634e487b7160e01b600052601160045260246000fd5b5060010190565b6020815260006104ab60208301846104b256fea2646970667358221220747092ba0c61b77af1a513a29db8bffe81cd073f20dffc4382e527628805c8ed64736f6c63430008130033",
  "immutableReferences": {},
  "source": "// SPDX-License-Identifier: MIT\r\npragma solidity ^0.8.19;\r\n\r\ncontract UserRegistration {\r\n\r\n    uint totalRenters;\r\n\r\n    // Add a renter\r\n    struct Renter {\r\n        address payable walletAddress; //address payable walletAddress;\r\n        string name;\r\n        bool canRent; \r\n        uint balance;\r\n        bool isRegistered;\r\n        uint nTrips;\r\n    }\r\n    \r\n    mapping(address => Renter) public renters; \r\n\r\n    event UserRegistered(address indexed walletAddress, string name);\r\n\r\n    constructor() {\r\n        totalRenters = 0;\r\n    }\r\n\r\n    // Function to register a new user\r\n    function registerRenter (address payable _walletAddress, string memory _name) public {\r\n        require(bytes(_name).length > 0, \"Name cannot be empty\");\r\n        require(!renters[_walletAddress].isRegistered, \"User already exists.\");  \r\n        \r\n        renters[_walletAddress] = Renter(_walletAddress, _name, true, 0, true, 0);  // msg.sender\r\n\r\n        totalRenters++;\r\n        emit UserRegistered(_walletAddress, _name);\r\n    }\r\n\r\n    // Function to check if the user has been registered\r\n    /*function isRegistered() public view returns(bool){\r\n        return renters[msg.sender].isRegistered;\r\n    }*/\r\n\r\n    // Helper functions for error handling\r\n   /* function condition(bool _condition) internal pure returns(bool) {\r\n        if(!_condition) revert();\r\n        return true;\r\n    }*/\r\n\r\n    // Get the details of a specific renter\r\n    function getRenterDetails(address _walletAddress) public view returns (string memory name, bool canRent, \r\n    uint balance, bool isRegistered, uint nTrips){\r\n        Renter memory r = renters[_walletAddress]; // calldata //use memory instead of store to save gas, since you're only reading data and not modifying it\r\n        return (r.name, r.canRent, r.balance, r.isRegistered, r.nTrips); \r\n    }\r\n}\r\n\r\n\r\n//------------------------------------------------\r\n/*pragma solidity ^0.8.19;\r\n\r\ncontract UserRegistration {\r\n\r\n    uint totalRenters;\r\n\r\n    // Add a renter\r\n    struct Renter {\r\n        address walletAddress;\r\n        string name;\r\n        bool canRent; \r\n        uint balance;\r\n        bool isRegistered;\r\n    }\r\n    \r\n    mapping(address => Renter) public renters; \r\n\r\n    event UserRegistered(address indexed walletAddress, string name);\r\n\r\n    constructor() {\r\n        totalRenters = 0;\r\n    }\r\n\r\n    // Function to register a new user\r\n    function registerRenter (address payable _walletAddress, string memory _name) public {\r\n        require(bytes(_name).length > 0, \"Name cannot be empty\");\r\n        require(!renters[_walletAddress].isRegistered, \"User already exists.\");  \r\n        \r\n        renters[_walletAddress] = Renter(_walletAddress, _name, true, 0, true);  // msg.sender\r\n\r\n        totalRenters++;\r\n        emit UserRegistered(_walletAddress, _name);\r\n    }\r\n\r\n    // Function to check if the user has been registered\r\n    /*function isRegistered() public view returns(bool){\r\n        return renters[msg.sender].isRegistered;\r\n    }*/\r\n\r\n    // Helper functions for error handling\r\n   /* function condition(bool _condition) internal pure returns(bool) {\r\n        if(!_condition) revert();\r\n        return true;\r\n    }*/\r\n\r\n    // Get the details of a specific renter\r\n    /*function getRenterDetails(address _walletAddress) public view returns (string memory name, bool canRent, \r\n    uint balance, bool isRegistered){\r\n        Renter memory r = renters[_walletAddress]; // calldata //use memory instead of store to save gas, since you're only reading data and not modifying it\r\n        return (r.name, r.canRent, r.balance, r.isRegistered); \r\n    }\r\n}\r\n*/\r\n",
  "sourcePath": "C:\\Users\\AnaMi\\Desktop\\truffle-projects\\bike-sharing\\contracts\\UserRegistration.sol",
  "compiler": {
    "name": "solc",
    "version": "0.8.19+commit.7dd6d404.Emscripten.clang"
  },
  "schemaVersion": "3.4.16",
  "updatedAt": "2024-04-24T16:45:18.061Z",
  "devdoc": {
    "kind": "dev",
    "methods": {},
    "version": 1
  },
  "userdoc": {
    "kind": "user",
    "methods": {},
    "version": 1
  }
}